{
  "transactions": [
    {
      "hash": "0x7df30cd2104d48e01dbdf26388950d17a37a2f58f33711c19cc688a18fc00c51",
      "transactionType": "CALL",
      "contractName": null,
      "contractAddress": "0x312cf8c8f041df4444a19e0525452ae362f3b043",
      "function": "approve(address,uint256)",
      "arguments": [
        "0xf969Aee60879C54bAAed9F3eD26147Db216Fd664",
        "115792089237316195423570985008687907853269984665640564039457584007913129639935"
      ],
      "transaction": {
        "from": "0x33450c70da7cd8815649ba02f6f7d9814f92f154",
        "to": "0x312cf8c8f041df4444a19e0525452ae362f3b043",
        "gas": "0x9fbc",
        "value": "0x0",
        "input": "0x095ea7b3000000000000000000000000f969aee60879c54baaed9f3ed26147db216fd664ffffffffffffffffffffffffffffffffffffffffffffffffffffffffffffffff",
        "nonce": "0x3d",
        "chainId": "0x515"
      },
      "additionalContracts": [],
      "isFixedGasLimit": false
    },
    {
      "hash": "0xfa0525b7e2fe209e0f15003a3ddcf00612f3fd2c510b0da2bcda0f072937512f",
      "transactionType": "CALL",
      "contractName": null,
      "contractAddress": "0xf969aee60879c54baaed9f3ed26147db216fd664",
      "function": "modifyLiquidities(bytes,uint256)",
      "arguments": [
        "0x000000000000000000000000000000000000000000000000000000000000004000000000000000000000000000000000000000000000000000000000000000800000000000000000000000000000000000000000000000000000000000000003020d140000000000000000000000000000000000000000000000000000000000000000000000000000000000000000000000000000000000000000000000000300000000000000000000000000000000000000000000000000000000000000600000000000000000000000000000000000000000000000000000000000000220000000000000000000000000000000000000000000000000000000000000028000000000000000000000000000000000000000000000000000000000000001a00000000000000000000000000000000000000000000000000000000000000000000000000000000000000000312cf8c8f041df4444a19e0525452ae362f3b0430000000000000000000000000000000000000000000000000000000000800000000000000000000000000000000000000000000000000000000000000000003c000000000000000000000000bb9620c96a409d321552cff9f8c1397b879440c0fffffffffffffffffffffffffffffffffffffffffffffffffffffffffff2764c00000000000000000000000000000000000000000000000000000000000d89b40000000000000000000000000000000000000000000000000011c37937e0800000000000000000000000000000000000000000000000000000470de4df82000000000000000000000000000000000000000000000000000000470de4df82000000000000000000000000000033450c70da7cd8815649ba02f6f7d9814f92f1540000000000000000000000000000000000000000000000000000000000000180000000000000000000000000000000000000000000000000000000000000000000000000000000000000000000000000000000000000000000000000000000400000000000000000000000000000000000000000000000000000000000000000000000000000000000000000312cf8c8f041df4444a19e0525452ae362f3b0430000000000000000000000000000000000000000000000000000000000000040000000000000000000000000000000000000000000000000000000000000000000000000000000000000000033450c70da7cd8815649ba02f6f7d9814f92f154",
        "1770299549"
      ],
      "transaction": {
        "from": "0x33450c70da7cd8815649ba02f6f7d9814f92f154",
        "to": "0xf969aee60879c54baaed9f3ed26147db216fd664",
        "gas": "0x80fa6",
        "value": "0x2386f26fc10000",
        "input": "0xdd46508f0000000000000000000000000000000000000000000000000000000000000040000000000000000000000000000000000000000000000000000000006984a09d0000000000000000000000000000000000000000000000000000000000000380000000000000000000000000000000000000000000000000000000000000004000000000000000000000000000000000000000000000000000000000000000800000000000000000000000000000000000000000000000000000000000000003020d140000000000000000000000000000000000000000000000000000000000000000000000000000000000000000000000000000000000000000000000000300000000000000000000000000000000000000000000000000000000000000600000000000000000000000000000000000000000000000000000000000000220000000000000000000000000000000000000000000000000000000000000028000000000000000000000000000000000000000000000000000000000000001a00000000000000000000000000000000000000000000000000000000000000000000000000000000000000000312cf8c8f041df4444a19e0525452ae362f3b0430000000000000000000000000000000000000000000000000000000000800000000000000000000000000000000000000000000000000000000000000000003c000000000000000000000000bb9620c96a409d321552cff9f8c1397b879440c0fffffffffffffffffffffffffffffffffffffffffffffffffffffffffff2764c00000000000000000000000000000000000000000000000000000000000d89b40000000000000000000000000000000000000000000000000011c37937e0800000000000000000000000000000000000000000000000000000470de4df82000000000000000000000000000000000000000000000000000000470de4df82000000000000000000000000000033450c70da7cd8815649ba02f6f7d9814f92f1540000000000000000000000000000000000000000000000000000000000000180000000000000000000000000000000000000000000000000000000000000000000000000000000000000000000000000000000000000000000000000000000400000000000000000000000000000000000000000000000000000000000000000000000000000000000000000312cf8c8f041df4444a19e0525452ae362f3b0430000000000000000000000000000000000000000000000000000000000000040000000000000000000000000000000000000000000000000000000000000000000000000000000000000000033450c70da7cd8815649ba02f6f7d9814f92f154",
        "nonce": "0x3e",
        "chainId": "0x515"
      },
      "additionalContracts": [],
      "isFixedGasLimit": false
    }
  ],
  "receipts": [
    {
      "status": "0x1",
      "cumulativeGasUsed": "0x45e00",
      "logs": [
        {
          "address": "0x312cf8c8f041df4444a19e0525452ae362f3b043",
          "topics": [
            "0x8c5be1e5ebec7d5bd14f71427d1e84f3dd0314c0f7b2291e5b200ac8c7c3b925",
            "0x00000000000000000000000033450c70da7cd8815649ba02f6f7d9814f92f154",
            "0x000000000000000000000000f969aee60879c54baaed9f3ed26147db216fd664"
          ],
          "data": "0xffffffffffffffffffffffffffffffffffffffffffffffffffffffffffffffff",
          "blockHash": "0x0000000000000000000000000000000000000000000000000000000000000000",
          "blockNumber": "0x296f32b",
          "blockTimestamp": "0x6984a077",
          "transactionHash": "0x7df30cd2104d48e01dbdf26388950d17a37a2f58f33711c19cc688a18fc00c51",
          "transactionIndex": "0x4",
          "logIndex": "0x2",
          "removed": false
        }
      ],
      "logsBloom": "0x00000000000000000000000000000000000000000000000000000000000000000000000000010000000000000000000000000000000000000000000000200000000000000000000000000000000000000000000000000000000000001000000000000000000000000000000000000000000000000040000000000000000000000000000000004000000000000000000000000000000000000000800000000000020000000000000000000000000000010000000000000000000000000000000000000000000000000000000000000000000000000000002000000000000000000010000000000000000000000000000000000000000000000000010000002000",
      "type": "0x2",
      "transactionHash": "0x7df30cd2104d48e01dbdf26388950d17a37a2f58f33711c19cc688a18fc00c51",
      "transactionIndex": "0x4",
      "blockHash": "0x0000000000000000000000000000000000000000000000000000000000000000",
      "blockNumber": "0x296f32b",
      "gasUsed": "0x73a6",
      "effectiveGasPrice": "0x7a121",
      "blobGasUsed": "0x9c40",
      "from": "0x33450c70da7cd8815649ba02f6f7d9814f92f154",
      "to": "0x312cf8c8f041df4444a19e0525452ae362f3b043",
      "contractAddress": null,
      "daFootprintGasScalar": "0x190",
      "l1BaseFeeScalar": "0x7d0",
      "l1BlobBaseFee": "0x379d294",
      "l1BlobBaseFeeScalar": "0xdbba0",
      "l1Fee": "0x2c660186c",
      "l1GasPrice": "0x3efd9403",
      "l1GasUsed": "0x640"
    },
    {
      "status": "0x1",
      "cumulativeGasUsed": "0x7fd3f",
      "logs": [
        {
          "address": "0xf969aee60879c54baaed9f3ed26147db216fd664",
          "topics": [
            "0xddf252ad1be2c89b69c2b068fc378daa952ba7f163c4a11628f55a4df523b3ef",
            "0x0000000000000000000000000000000000000000000000000000000000000000",
            "0x00000000000000000000000033450c70da7cd8815649ba02f6f7d9814f92f154",
            "0x00000000000000000000000000000000000000000000000000000000000019cc"
          ],
          "data": "0x",
          "blockHash": "0x0000000000000000000000000000000000000000000000000000000000000000",
          "blockNumber": "0x296f32f",
          "blockTimestamp": "0x6984a07b",
          "transactionHash": "0xfa0525b7e2fe209e0f15003a3ddcf00612f3fd2c510b0da2bcda0f072937512f",
          "transactionIndex": "0x3",
          "logIndex": "0x1",
          "removed": false
        },
        {
          "address": "0x00b036b58a818b1bc34d502d3fe730db729e62ac",
          "topics": [
            "0xf208f4912782fd25c7f114ca3723a2d5dd6f3bcc3ac8db5af63baa85f711d5ec",
            "0x24090849803d7924283486c92d9f6c725844783b62e4243a1b364db0884a269e",
            "0x000000000000000000000000f969aee60879c54baaed9f3ed26147db216fd664"
          ],
          "data": "0xfffffffffffffffffffffffffffffffffffffffffffffffffffffffffff2764c00000000000000000000000000000000000000000000000000000000000d89b40000000000000000000000000000000000000000000000000011c37937e0800000000000000000000000000000000000000000000000000000000000000019cc",
          "blockHash": "0x0000000000000000000000000000000000000000000000000000000000000000",
          "blockNumber": "0x296f32f",
          "blockTimestamp": "0x6984a07b",
          "transactionHash": "0xfa0525b7e2fe209e0f15003a3ddcf00612f3fd2c510b0da2bcda0f072937512f",
          "transactionIndex": "0x3",
          "logIndex": "0x2",
          "removed": false
        },
        {
          "address": "0x312cf8c8f041df4444a19e0525452ae362f3b043",
          "topics": [
            "0xddf252ad1be2c89b69c2b068fc378daa952ba7f163c4a11628f55a4df523b3ef",
            "0x00000000000000000000000033450c70da7cd8815649ba02f6f7d9814f92f154",
            "0x00000000000000000000000000b036b58a818b1bc34d502d3fe730db729e62ac"
          ],
          "data": "0x0000000000000000000000000000000000000000000000000011c37937e08000",
          "blockHash": "0x0000000000000000000000000000000000000000000000000000000000000000",
          "blockNumber": "0x296f32f",
          "blockTimestamp": "0x6984a07b",
          "transactionHash": "0xfa0525b7e2fe209e0f15003a3ddcf00612f3fd2c510b0da2bcda0f072937512f",
          "transactionIndex": "0x3",
          "logIndex": "0x3",
          "removed": false
        }
      ],
      "logsBloom": "0x00000000000000000000000000000000000000000002000000000000000000000000000000010000000000000000000020000000001000000000000000000000000000000000200000000008000000000000000000000000000000001000000000000000020000000008000000004800000000000040000000000010000000000000000001004000400000000008000000000000000000000000800000000000000004000000000000000000000000010800000000000020000000000000000000000002080000000000000000000000000000000000002000000000000020004000000000000000000000000000000004000000000002010000010000002010",
      "type": "0x2",
      "transactionHash": "0xfa0525b7e2fe209e0f15003a3ddcf00612f3fd2c510b0da2bcda0f072937512f",
      "transactionIndex": "0x3",
      "blockHash": "0x0000000000000000000000000000000000000000000000000000000000000000",
      "blockNumber": "0x296f32f",
      "gasUsed": "0x5830b",
      "effectiveGasPrice": "0x7a121",
      "blobGasUsed": "0x18b50",
      "from": "0x33450c70da7cd8815649ba02f6f7d9814f92f154",
      "to": "0xf969aee60879c54baaed9f3ed26147db216fd664",
      "contractAddress": null,
      "daFootprintGasScalar": "0x190",
      "l1BaseFeeScalar": "0x7d0",
      "l1BlobBaseFee": "0x379d294",
      "l1BlobBaseFeeScalar": "0xdbba0",
      "l1Fee": "0x2c660186c",
      "l1GasPrice": "0x3efd9403",
      "l1GasUsed": "0xfd8"
    }
  ],
  "libraries": [],
  "pending": [],
  "returns": {},
  "timestamp": 1770299514419,
  "chain": 1301,
  "commit": null
}