{
  "transactions": [
    {
      "hash": "0x8bf2be93610b6eee9c15530a5698a58f92536da4e0b052d5c47b343173e0b772",
      "transactionType": "CALL",
      "contractName": null,
      "contractAddress": "0x00b036b58a818b1bc34d502d3fe730db729e62ac",
      "function": "initialize((address,address,uint24,int24,address),uint160)",
      "arguments": [
        "(0x0000000000000000000000000000000000000000, 0x312CF8c8F041df4444A19e0525452aE362F3B043, 8388608, 60, 0xbB9620C96A409d321552Cff9F8c1397b879440c0)",
        "79228162514264337593543950336"
      ],
      "transaction": {
        "from": "0x33450c70da7cd8815649ba02f6f7d9814f92f154",
        "to": "0x00b036b58a818b1bc34d502d3fe730db729e62ac",
        "gas": "0x1157d",
        "value": "0x0",
        "input": "0x6276cbbe0000000000000000000000000000000000000000000000000000000000000000000000000000000000000000312cf8c8f041df4444a19e0525452ae362f3b0430000000000000000000000000000000000000000000000000000000000800000000000000000000000000000000000000000000000000000000000000000003c000000000000000000000000bb9620c96a409d321552cff9f8c1397b879440c00000000000000000000000000000000000000001000000000000000000000000",
        "nonce": "0x3c",
        "chainId": "0x515"
      },
      "additionalContracts": [],
      "isFixedGasLimit": false
    }
  ],
  "receipts": [
    {
      "status": "0x1",
      "cumulativeGasUsed": "0x62342",
      "logs": [
        {
          "address": "0x00b036b58a818b1bc34d502d3fe730db729e62ac",
          "topics": [
            "0xdd466e674ea557f56295e2d0218a125ea4b4f0f6f3307b95f85e6110838d6438",
            "0x24090849803d7924283486c92d9f6c725844783b62e4243a1b364db0884a269e",
            "0x0000000000000000000000000000000000000000000000000000000000000000",
            "0x000000000000000000000000312cf8c8f041df4444a19e0525452ae362f3b043"
          ],
          "data": "0x0000000000000000000000000000000000000000000000000000000000800000000000000000000000000000000000000000000000000000000000000000003c000000000000000000000000bb9620c96a409d321552cff9f8c1397b879440c000000000000000000000000000000000000000010000000000000000000000000000000000000000000000000000000000000000000000000000000000000000",
          "blockHash": "0xde9515721ddb010e8e736c4cc8977d6a988ea71fb092ad945c48278bd087ee8f",
          "blockNumber": "0x296ef9c",
          "blockTimestamp": "0x69849ce8",
          "transactionHash": "0x8bf2be93610b6eee9c15530a5698a58f92536da4e0b052d5c47b343173e0b772",
          "transactionIndex": "0x5",
          "logIndex": "0x3",
          "removed": false
        }
      ],
      "logsBloom": "0x00000000000000000000000000000000000000000000000000000000000000000000000000000000000000000000000000000000000000000000000000000000000000000000200000000000000000000200000000000000000000000000000000000000020000000000000000000800000000000000000000000000000000000000080000000008400000000008000000000001000000000000000000200000000000000000000000000040000000000000000000000000000000000000000000000000000000000000000000000000000000000000000000000000000020000000000000000000000000000000000000000000000002010000000000000010",
      "type": "0x2",
      "transactionHash": "0x8bf2be93610b6eee9c15530a5698a58f92536da4e0b052d5c47b343173e0b772",
      "transactionIndex": "0x5",
      "blockHash": "0xde9515721ddb010e8e736c4cc8977d6a988ea71fb092ad945c48278bd087ee8f",
      "blockNumber": "0x296ef9c",
      "gasUsed": "0xc8e6",
      "effectiveGasPrice": "0x7a121",
      "blobGasUsed": "0xb6d0",
      "from": "0x33450c70da7cd8815649ba02f6f7d9814f92f154",
      "to": "0x00b036b58a818b1bc34d502d3fe730db729e62ac",
      "contractAddress": null,
      "daFootprintGasScalar": "0x190",
      "l1BaseFeeScalar": "0x7d0",
      "l1BlobBaseFee": "0x39bb9c8",
      "l1BlobBaseFeeScalar": "0xdbba0",
      "l1Fee": "0x24cc80b01",
      "l1GasPrice": "0x3786e876",
      "l1GasUsed": "0x752"
    }
  ],
  "libraries": [],
  "pending": [],
  "returns": {},
  "timestamp": 1770298600003,
  "chain": 1301,
  "commit": null
}